{
  "_format": "hh-sol-artifact-1",
  "contractName": "NexusEscrow",
  "sourceName": "contracts/NexusEscrow.sol",
  "abi": [
    {
      "inputs": [],
      "stateMutability": "nonpayable",
      "type": "constructor"
    },
    {
      "anonymous": false,
      "inputs": [
        {
          "indexed": true,
          "internalType": "uint256",
          "name": "campaignId",
          "type": "uint256"
        }
      ],
      "name": "CampaignAbandoned",
      "type": "event"
    },
    {
      "anonymous": false,
      "inputs": [
        {
          "indexed": true,
          "internalType": "uint256",
          "name": "id",
          "type": "uint256"
        },
        {
          "indexed": false,
          "internalType": "string",
          "name": "firebaseEventId",
          "type": "string"
        },
        {
          "indexed": false,
          "internalType": "address",
          "name": "organizer",
          "type": "address"
        },
        {
          "indexed": false,
          "internalType": "uint8",
          "name": "milestoneCount",
          "type": "uint8"
        }
      ],
      "name": "CampaignCreated",
      "type": "event"
    },
    {
      "anonymous": false,
      "inputs": [
        {
          "indexed": true,
          "internalType": "uint256",
          "name": "campaignId",
          "type": "uint256"
        },
        {
          "indexed": true,
          "internalType": "address",
          "name": "donor",
          "type": "address"
        },
        {
          "indexed": false,
          "internalType": "uint256",
          "name": "amount",
          "type": "uint256"
        }
      ],
      "name": "DonationReceived",
      "type": "event"
    },
    {
      "anonymous": false,
      "inputs": [
        {
          "indexed": true,
          "internalType": "uint256",
          "name": "campaignId",
          "type": "uint256"
        },
        {
          "indexed": false,
          "internalType": "address",
          "name": "organizer",
          "type": "address"
        },
        {
          "indexed": false,
          "internalType": "uint256",
          "name": "amount",
          "type": "uint256"
        }
      ],
      "name": "FundsReleased",
      "type": "event"
    },
    {
      "anonymous": false,
      "inputs": [
        {
          "indexed": true,
          "internalType": "uint256",
          "name": "campaignId",
          "type": "uint256"
        },
        {
          "indexed": false,
          "internalType": "uint8",
          "name": "milestoneIndex",
          "type": "uint8"
        },
        {
          "indexed": false,
          "internalType": "uint256",
          "name": "released",
          "type": "uint256"
        }
      ],
      "name": "MilestoneApproved",
      "type": "event"
    },
    {
      "anonymous": false,
      "inputs": [
        {
          "indexed": true,
          "internalType": "uint256",
          "name": "campaignId",
          "type": "uint256"
        },
        {
          "indexed": false,
          "internalType": "uint8",
          "name": "milestoneIndex",
          "type": "uint8"
        }
      ],
      "name": "MilestoneProposed",
      "type": "event"
    },
    {
      "anonymous": false,
      "inputs": [
        {
          "indexed": true,
          "internalType": "uint256",
          "name": "campaignId",
          "type": "uint256"
        },
        {
          "indexed": false,
          "internalType": "address",
          "name": "donor",
          "type": "address"
        },
        {
          "indexed": false,
          "internalType": "uint256",
          "name": "amount",
          "type": "uint256"
        }
      ],
      "name": "RefundIssued",
      "type": "event"
    },
    {
      "inputs": [
        {
          "internalType": "uint256",
          "name": "_campaignId",
          "type": "uint256"
        }
      ],
      "name": "abandonCampaign",
      "outputs": [],
      "stateMutability": "nonpayable",
      "type": "function"
    },
    {
      "inputs": [
        {
          "internalType": "uint256",
          "name": "_campaignId",
          "type": "uint256"
        },
        {
          "internalType": "uint8",
          "name": "_milestoneIndex",
          "type": "uint8"
        }
      ],
      "name": "approveMilestone",
      "outputs": [],
      "stateMutability": "nonpayable",
      "type": "function"
    },
    {
      "inputs": [],
      "name": "campaignCount",
      "outputs": [
        {
          "internalType": "uint256",
          "name": "",
          "type": "uint256"
        }
      ],
      "stateMutability": "view",
      "type": "function"
    },
    {
      "inputs": [
        {
          "internalType": "uint256",
          "name": "",
          "type": "uint256"
        }
      ],
      "name": "campaigns",
      "outputs": [
        {
          "internalType": "string",
          "name": "firebaseEventId",
          "type": "string"
        },
        {
          "internalType": "address",
          "name": "organizer",
          "type": "address"
        },
        {
          "internalType": "uint256",
          "name": "totalRaised",
          "type": "uint256"
        },
        {
          "internalType": "uint256",
          "name": "totalReleased",
          "type": "uint256"
        },
        {
          "internalType": "uint8",
          "name": "milestoneCount",
          "type": "uint8"
        },
        {
          "internalType": "enum NexusEscrow.CampaignStatus",
          "name": "status",
          "type": "uint8"
        }
      ],
      "stateMutability": "view",
      "type": "function"
    },
    {
      "inputs": [
        {
          "internalType": "uint256",
          "name": "_campaignId",
          "type": "uint256"
        }
      ],
      "name": "claimRefund",
      "outputs": [],
      "stateMutability": "nonpayable",
      "type": "function"
    },
    {
      "inputs": [
        {
          "internalType": "string",
          "name": "_firebaseEventId",
          "type": "string"
        },
        {
          "internalType": "string[]",
          "name": "_milestoneDescs",
          "type": "string[]"
        }
      ],
      "name": "createCampaign",
      "outputs": [
        {
          "internalType": "uint256",
          "name": "",
          "type": "uint256"
        }
      ],
      "stateMutability": "nonpayable",
      "type": "function"
    },
    {
      "inputs": [
        {
          "internalType": "uint256",
          "name": "_campaignId",
          "type": "uint256"
        }
      ],
      "name": "donate",
      "outputs": [],
      "stateMutability": "payable",
      "type": "function"
    },
    {
      "inputs": [
        {
          "internalType": "uint256",
          "name": "",
          "type": "uint256"
        },
        {
          "internalType": "address",
          "name": "",
          "type": "address"
        }
      ],
      "name": "donorAmounts",
      "outputs": [
        {
          "internalType": "uint256",
          "name": "",
          "type": "uint256"
        }
      ],
      "stateMutability": "view",
      "type": "function"
    },
    {
      "inputs": [
        {
          "internalType": "uint256",
          "name": "_id",
          "type": "uint256"
        }
      ],
      "name": "getCampaign",
      "outputs": [
        {
          "internalType": "string",
          "name": "firebaseEventId",
          "type": "string"
        },
        {
          "internalType": "address",
          "name": "organizer",
          "type": "address"
        },
        {
          "internalType": "uint256",
          "name": "totalRaised",
          "type": "uint256"
        },
        {
          "internalType": "uint256",
          "name": "totalReleased",
          "type": "uint256"
        },
        {
          "internalType": "uint8",
          "name": "milestoneCount",
          "type": "uint8"
        },
        {
          "internalType": "uint8",
          "name": "status",
          "type": "uint8"
        }
      ],
      "stateMutability": "view",
      "type": "function"
    },
    {
      "inputs": [
        {
          "internalType": "uint256",
          "name": "_campaignId",
          "type": "uint256"
        },
        {
          "internalType": "address",
          "name": "_donor",
          "type": "address"
        }
      ],
      "name": "getDonorAmount",
      "outputs": [
        {
          "internalType": "uint256",
          "name": "",
          "type": "uint256"
        }
      ],
      "stateMutability": "view",
      "type": "function"
    },
    {
      "inputs": [
        {
          "internalType": "uint256",
          "name": "_campaignId",
          "type": "uint256"
        },
        {
          "internalType": "uint8",
          "name": "_index",
          "type": "uint8"
        }
      ],
      "name": "getMilestone",
      "outputs": [
        {
          "internalType": "string",
          "name": "description",
          "type": "string"
        },
        {
          "internalType": "uint8",
          "name": "status",
          "type": "uint8"
        },
        {
          "internalType": "uint256",
          "name": "releasedAmount",
          "type": "uint256"
        }
      ],
      "stateMutability": "view",
      "type": "function"
    },
    {
      "inputs": [
        {
          "internalType": "uint256",
          "name": "",
          "type": "uint256"
        },
        {
          "internalType": "uint256",
          "name": "",
          "type": "uint256"
        }
      ],
      "name": "milestones",
      "outputs": [
        {
          "internalType": "string",
          "name": "description",
          "type": "string"
        },
        {
          "internalType": "enum NexusEscrow.MilestoneStatus",
          "name": "status",
          "type": "uint8"
        },
        {
          "internalType": "uint256",
          "name": "releasedAmount",
          "type": "uint256"
        }
      ],
      "stateMutability": "view",
      "type": "function"
    },
    {
      "inputs": [],
      "name": "owner",
      "outputs": [
        {
          "internalType": "address",
          "name": "",
          "type": "address"
        }
      ],
      "stateMutability": "view",
      "type": "function"
    },
    {
      "inputs": [
        {
          "internalType": "uint256",
          "name": "_campaignId",
          "type": "uint256"
        },
        {
          "internalType": "uint8",
          "name": "_milestoneIndex",
          "type": "uint8"
        }
      ],
      "name": "proposeMilestoneComplete",
      "outputs": [],
      "stateMutability": "nonpayable",
      "type": "function"
    }
  ],
  "bytecode": "0x608060405234801561001057600080fd5b50336000806101000a81548173ffffffffffffffffffffffffffffffffffffffff021916908373ffffffffffffffffffffffffffffffffffffffff160217905550612d33806100606000396000f3fe6080604052600436106100dd5760003560e01c8063644ed82a1161007f5780638da5cb5b116100595780638da5cb5b14610304578063b7c592331461032f578063ccc0bde414610358578063f14faf6f14610395576100dd565b8063644ed82a1461025f57806365d780fe1461029c5780637274e30d146102d9576100dd565b806334bb3c27116100bb57806334bb3c27146101a25780635598f8cc146101cb57806358c0d16e1461020d5780635b7baf6414610236576100dd565b8063056da8df146100e2578063141961bc146101215780631c376c6314610163575b600080fd5b3480156100ee57600080fd5b5061010960048036038101906101049190611b40565b6103b1565b60405161011893929190611c2e565b60405180910390f35b34801561012d57600080fd5b5061014860048036038101906101439190611c6c565b6104b7565b60405161015a96959493929190611d51565b60405180910390f35b34801561016f57600080fd5b5061018a60048036038101906101859190611db9565b6105b5565b60405161019993929190611e41565b60405180910390f35b3480156101ae57600080fd5b506101c960048036038101906101c49190611b40565b610691565b005b3480156101d757600080fd5b506101f260048036038101906101ed9190611c6c565b61096e565b60405161020496959493929190611e7f565b60405180910390f35b34801561021957600080fd5b50610234600480360381019061022f9190611c6c565b610a99565b005b34801561024257600080fd5b5061025d60048036038101906102589190611c6c565b610c5a565b005b34801561026b57600080fd5b5061028660048036038101906102819190611fa2565b610f41565b6040516102939190612023565b60405180910390f35b3480156102a857600080fd5b506102c360048036038101906102be919061206a565b6112c6565b6040516102d09190612023565b60405180910390f35b3480156102e557600080fd5b506102ee611321565b6040516102fb9190612023565b60405180910390f35b34801561031057600080fd5b50610319611327565b60405161032691906120aa565b60405180910390f35b34801561033b57600080fd5b5061035660048036038101906103519190611b40565b61134b565b005b34801561036457600080fd5b5061037f600480360381019061037a919061206a565b6118b5565b60405161038c9190612023565b60405180910390f35b6103af60048036038101906103aa9190611c6c565b6118da565b005b60606000806000600360008781526020019081526020016000208560ff16815481106103e0576103df6120c5565b5b90600052602060002090600302019050806000018160010160009054906101000a900460ff16600281111561041857610417611cda565b5b826002015482805461042990612123565b80601f016020809104026020016040519081016040528092919081815260200182805461045590612123565b80156104a25780601f10610477576101008083540402835291602001916104a2565b820191906000526020600020905b81548152906001019060200180831161048557829003601f168201915b50505050509250935093509350509250925092565b60026020528060005260406000206000915090508060000180546104da90612123565b80601f016020809104026020016040519081016040528092919081815260200182805461050690612123565b80156105535780601f1061052857610100808354040283529160200191610553565b820191906000526020600020905b81548152906001019060200180831161053657829003601f168201915b5050505050908060010160009054906101000a900473ffffffffffffffffffffffffffffffffffffffff16908060020154908060030154908060040160009054906101000a900460ff16908060040160019054906101000a900460ff16905086565b600360205281600052604060002081815481106105d157600080fd5b9060005260206000209060030201600091509150508060000180546105f590612123565b80601f016020809104026020016040519081016040528092919081815260200182805461062190612123565b801561066e5780601f106106435761010080835404028352916020019161066e565b820191906000526020600020905b81548152906001019060200180831161065157829003601f168201915b5050505050908060010160009054906101000a900460ff16908060020154905083565b8160015481106106d6576040517f08c379a00000000000000000000000000000000000000000000000000000000081526004016106cd906121a0565b60405180910390fd5b60006002600085815260200190815260200160002090508060010160009054906101000a900473ffffffffffffffffffffffffffffffffffffffff1673ffffffffffffffffffffffffffffffffffffffff163373ffffffffffffffffffffffffffffffffffffffff161461077f576040517f08c379a00000000000000000000000000000000000000000000000000000000081526004016107769061220c565b60405180910390fd5b6000600281111561079357610792611cda565b5b8160040160019054906101000a900460ff1660028111156107b7576107b6611cda565b5b146107f7576040517f08c379a00000000000000000000000000000000000000000000000000000000081526004016107ee90612278565b60405180910390fd5b8060040160009054906101000a900460ff1660ff168360ff1610610850576040517f08c379a0000000000000000000000000000000000000000000000000000000008152600401610847906122e4565b60405180910390fd5b6000600360008681526020019081526020016000208460ff168154811061087a576108796120c5565b5b906000526020600020906003020190506000600281111561089e5761089d611cda565b5b8160010160009054906101000a900460ff1660028111156108c2576108c1611cda565b5b14610902576040517f08c379a00000000000000000000000000000000000000000000000000000000081526004016108f990612350565b60405180910390fd5b60018160010160006101000a81548160ff0219169083600281111561092a57610929611cda565b5b0217905550847fe2e833af6e04d8863124c383390eddd83a8e49626f0094a08535f1f7897e1b3b8560405161095f9190612370565b60405180910390a25050505050565b6060600080600080600080600260008981526020019081526020016000209050806000018160010160009054906101000a900473ffffffffffffffffffffffffffffffffffffffff16826002015483600301548460040160009054906101000a900460ff168560040160019054906101000a900460ff1660028111156109f7576109f6611cda565b5b858054610a0390612123565b80601f0160208091040260200160405190810160405280929190818152602001828054610a2f90612123565b8015610a7c5780601f10610a5157610100808354040283529160200191610a7c565b820191906000526020600020905b815481529060010190602001808311610a5f57829003601f168201915b505050505095509650965096509650965096505091939550919395565b60008054906101000a900473ffffffffffffffffffffffffffffffffffffffff1673ffffffffffffffffffffffffffffffffffffffff163373ffffffffffffffffffffffffffffffffffffffff1614610b27576040517f08c379a0000000000000000000000000000000000000000000000000000000008152600401610b1e906123d7565b60405180910390fd5b806001548110610b6c576040517f08c379a0000000000000000000000000000000000000000000000000000000008152600401610b63906121a0565b60405180910390fd5b600060026000848152602001908152602001600020905060006002811115610b9757610b96611cda565b5b8160040160019054906101000a900460ff166002811115610bbb57610bba611cda565b5b14610bfb576040517f08c379a0000000000000000000000000000000000000000000000000000000008152600401610bf290612278565b60405180910390fd5b60028160040160016101000a81548160ff02191690836002811115610c2357610c22611cda565b5b0217905550827f4e8a6e268d0bd7d9846106910815bb56e964d366f4b460c99861881c96d2f36460405160405180910390a2505050565b806001548110610c9f576040517f08c379a0000000000000000000000000000000000000000000000000000000008152600401610c96906121a0565b60405180910390fd5b6000600260008481526020019081526020016000209050600280811115610cc957610cc8611cda565b5b8160040160019054906101000a900460ff166002811115610ced57610cec611cda565b5b14610d2d576040517f08c379a0000000000000000000000000000000000000000000000000000000008152600401610d2490612443565b60405180910390fd5b60006004600085815260200190815260200160002060003373ffffffffffffffffffffffffffffffffffffffff1673ffffffffffffffffffffffffffffffffffffffff16815260200190815260200160002054905060008111610dc5576040517f08c379a0000000000000000000000000000000000000000000000000000000008152600401610dbc906124af565b60405180910390fd5b600082600301548360020154610ddb91906124fe565b9050600083600201548284610df09190612532565b610dfa91906125a3565b905060006004600088815260200190815260200160002060003373ffffffffffffffffffffffffffffffffffffffff1673ffffffffffffffffffffffffffffffffffffffff1681526020019081526020016000208190555060003373ffffffffffffffffffffffffffffffffffffffff1682604051610e7890612605565b60006040518083038185875af1925050503d8060008114610eb5576040519150601f19603f3d011682016040523d82523d6000602084013e610eba565b606091505b5050905080610efe576040517f08c379a0000000000000000000000000000000000000000000000000000000008152600401610ef590612666565b60405180910390fd5b867f7a482fdeb6bc9a1376f597068a214a7a39472bb2eff1b8cad21ba04f49ddca1b3384604051610f30929190612686565b60405180910390a250505050505050565b60008083839050118015610f595750600a8383905011155b610f98576040517f08c379a0000000000000000000000000000000000000000000000000000000008152600401610f8f906126fb565b60405180910390fd5b600060016000815480929190610fad9061271b565b9190505590506040518060c0016040528087878080601f016020809104026020016040519081016040528093929190818152602001838380828437600081840152601f19601f8201169050808301925050505050505081526020013373ffffffffffffffffffffffffffffffffffffffff16815260200160008152602001600081526020018585905060ff1681526020016000600281111561105257611051611cda565b5b81525060026000838152602001908152602001600020600082015181600001908161107d919061293e565b5060208201518160010160006101000a81548173ffffffffffffffffffffffffffffffffffffffff021916908373ffffffffffffffffffffffffffffffffffffffff160217905550604082015181600201556060820151816003015560808201518160040160006101000a81548160ff021916908360ff16021790555060a08201518160040160016101000a81548160ff0219169083600281111561112557611124611cda565b5b021790555090505060005b848490508160ff1610156112785760036000838152602001908152602001600020604051806060016040528087878560ff16818110611172576111716120c5565b5b90506020028101906111849190612a1f565b8080601f016020809104026020016040519081016040528093929190818152602001838380828437600081840152601f19601f820116905080830192505050505050508152602001600060028111156111e0576111df611cda565b5b8152602001600081525090806001815401808255809150506001900390600052602060002090600302016000909190919091506000820151816000019081611228919061293e565b5060208201518160010160006101000a81548160ff0219169083600281111561125457611253611cda565b5b0217905550604082015181600201555050808061127090612a82565b915050611130565b50807f05fa1acd8064dbde1d4d811545525f21dc4e06f6d8b9bee57e0492c1e6375982878733888890506040516112b29493929190612ae7565b60405180910390a280915050949350505050565b60006004600084815260200190815260200160002060008373ffffffffffffffffffffffffffffffffffffffff1673ffffffffffffffffffffffffffffffffffffffff16815260200190815260200160002054905092915050565b60015481565b60008054906101000a900473ffffffffffffffffffffffffffffffffffffffff1681565b60008054906101000a900473ffffffffffffffffffffffffffffffffffffffff1673ffffffffffffffffffffffffffffffffffffffff163373ffffffffffffffffffffffffffffffffffffffff16146113d9576040517f08c379a00000000000000000000000000000000000000000000000000000000081526004016113d0906123d7565b60405180910390fd5b81600154811061141e576040517f08c379a0000000000000000000000000000000000000000000000000000000008152600401611415906121a0565b60405180910390fd5b60006002600085815260200190815260200160002090506000600281111561144957611448611cda565b5b8160040160019054906101000a900460ff16600281111561146d5761146c611cda565b5b146114ad576040517f08c379a00000000000000000000000000000000000000000000000000000000081526004016114a490612278565b60405180910390fd5b8060040160009054906101000a900460ff1660ff168360ff1610611506576040517f08c379a00000000000000000000000000000000000000000000000000000000081526004016114fd906122e4565b60405180910390fd5b6000600360008681526020019081526020016000208460ff16815481106115305761152f6120c5565b5b906000526020600020906003020190506001600281111561155457611553611cda565b5b8160010160009054906101000a900460ff16600281111561157857611577611cda565b5b146115b8576040517f08c379a00000000000000000000000000000000000000000000000000000000081526004016115af90612b73565b60405180910390fd5b60008260040160009054906101000a900460ff1660ff1683600201546115de91906125a3565b905060018360040160009054906101000a900460ff166115fe9190612b93565b60ff168560ff160361160e574790505b60028260010160006101000a81548160ff0219169083600281111561163657611635611cda565b5b0217905550808260020181905550808360030160008282546116589190612bc8565b92505081905550857fd2d643d3a00650bae3ba42b65050d2d73940ec2348525d88971eb26c3b71a6d38683604051611691929190612bfc565b60405180910390a260008360010160009054906101000a900473ffffffffffffffffffffffffffffffffffffffff1673ffffffffffffffffffffffffffffffffffffffff16826040516116e390612605565b60006040518083038185875af1925050503d8060008114611720576040519150601f19603f3d011682016040523d82523d6000602084013e611725565b606091505b5050905080611769576040517f08c379a000000000000000000000000000000000000000000000000000000000815260040161176090612c71565b60405180910390fd5b867f6e3c6096795c8298a218b2cfb8bde42726ff7c9a3d27b4d3ba41ab7f74feb5fb8560010160009054906101000a900473ffffffffffffffffffffffffffffffffffffffff16846040516117bf929190612686565b60405180910390a260006001905060005b8560040160009054906101000a900460ff1660ff168160ff1610156118765760028081111561180257611801611cda565b5b600360008b81526020019081526020016000208260ff168154811061182a576118296120c5565b5b906000526020600020906003020160010160009054906101000a900460ff16600281111561185b5761185a611cda565b5b146118695760009150611876565b80806001019150506117d0565b5080156118ab5760018560040160016101000a81548160ff021916908360028111156118a5576118a4611cda565b5b02179055505b5050505050505050565b6004602052816000526040600020602052806000526040600020600091509150505481565b80600154811061191f576040517f08c379a0000000000000000000000000000000000000000000000000000000008152600401611916906121a0565b60405180910390fd5b60006002600084815260200190815260200160002090506000600281111561194a57611949611cda565b5b8160040160019054906101000a900460ff16600281111561196e5761196d611cda565b5b146119ae576040517f08c379a00000000000000000000000000000000000000000000000000000000081526004016119a590612278565b60405180910390fd5b600034116119f1576040517f08c379a00000000000000000000000000000000000000000000000000000000081526004016119e890612cdd565b60405180910390fd5b34816002016000828254611a059190612bc8565b92505081905550346004600085815260200190815260200160002060003373ffffffffffffffffffffffffffffffffffffffff1673ffffffffffffffffffffffffffffffffffffffff1681526020019081526020016000206000828254611a6c9190612bc8565b925050819055503373ffffffffffffffffffffffffffffffffffffffff16837f0b5b4c52969ff7329ecf7ee536409fda87812b15a8622bc6e8cdeab3aee14a2634604051611aba9190612023565b60405180910390a3505050565b600080fd5b600080fd5b6000819050919050565b611ae481611ad1565b8114611aef57600080fd5b50565b600081359050611b0181611adb565b92915050565b600060ff82169050919050565b611b1d81611b07565b8114611b2857600080fd5b50565b600081359050611b3a81611b14565b92915050565b60008060408385031215611b5757611b56611ac7565b5b6000611b6585828601611af2565b9250506020611b7685828601611b2b565b9150509250929050565b600081519050919050565b600082825260208201905092915050565b60005b83811015611bba578082015181840152602081019050611b9f565b60008484015250505050565b6000601f19601f8301169050919050565b6000611be282611b80565b611bec8185611b8b565b9350611bfc818560208601611b9c565b611c0581611bc6565b840191505092915050565b611c1981611b07565b82525050565b611c2881611ad1565b82525050565b60006060820190508181036000830152611c488186611bd7565b9050611c576020830185611c10565b611c646040830184611c1f565b949350505050565b600060208284031215611c8257611c81611ac7565b5b6000611c9084828501611af2565b91505092915050565b600073ffffffffffffffffffffffffffffffffffffffff82169050919050565b6000611cc482611c99565b9050919050565b611cd481611cb9565b82525050565b7f4e487b7100000000000000000000000000000000000000000000000000000000600052602160045260246000fd5b60038110611d1a57611d19611cda565b5b50565b6000819050611d2b82611d09565b919050565b6000611d3b82611d1d565b9050919050565b611d4b81611d30565b82525050565b600060c0820190508181036000830152611d6b8189611bd7565b9050611d7a6020830188611ccb565b611d876040830187611c1f565b611d946060830186611c1f565b611da16080830185611c10565b611dae60a0830184611d42565b979650505050505050565b60008060408385031215611dd057611dcf611ac7565b5b6000611dde85828601611af2565b9250506020611def85828601611af2565b9150509250929050565b60038110611e0a57611e09611cda565b5b50565b6000819050611e1b82611df9565b919050565b6000611e2b82611e0d565b9050919050565b611e3b81611e20565b82525050565b60006060820190508181036000830152611e5b8186611bd7565b9050611e6a6020830185611e32565b611e776040830184611c1f565b949350505050565b600060c0820190508181036000830152611e998189611bd7565b9050611ea86020830188611ccb565b611eb56040830187611c1f565b611ec26060830186611c1f565b611ecf6080830185611c10565b611edc60a0830184611c10565b979650505050505050565b600080fd5b600080fd5b600080fd5b60008083601f840112611f0c57611f0b611ee7565b5b8235905067ffffffffffffffff811115611f2957611f28611eec565b5b602083019150836001820283011115611f4557611f44611ef1565b5b9250929050565b60008083601f840112611f6257611f61611ee7565b5b8235905067ffffffffffffffff811115611f7f57611f7e611eec565b5b602083019150836020820283011115611f9b57611f9a611ef1565b5b9250929050565b60008060008060408587031215611fbc57611fbb611ac7565b5b600085013567ffffffffffffffff811115611fda57611fd9611acc565b5b611fe687828801611ef6565b9450945050602085013567ffffffffffffffff81111561200957612008611acc565b5b61201587828801611f4c565b925092505092959194509250565b60006020820190506120386000830184611c1f565b92915050565b61204781611cb9565b811461205257600080fd5b50565b6000813590506120648161203e565b92915050565b6000806040838503121561208157612080611ac7565b5b600061208f85828601611af2565b92505060206120a085828601612055565b9150509250929050565b60006020820190506120bf6000830184611ccb565b92915050565b7f4e487b7100000000000000000000000000000000000000000000000000000000600052603260045260246000fd5b7f4e487b7100000000000000000000000000000000000000000000000000000000600052602260045260246000fd5b6000600282049050600182168061213b57607f821691505b60208210810361214e5761214d6120f4565b5b50919050565b7f43616d706169676e20646f6573206e6f74206578697374000000000000000000600082015250565b600061218a601783611b8b565b915061219582612154565b602082019050919050565b600060208201905081810360008301526121b98161217d565b9050919050565b7f4e6f74206f7267616e697a657200000000000000000000000000000000000000600082015250565b60006121f6600d83611b8b565b9150612201826121c0565b602082019050919050565b60006020820190508181036000830152612225816121e9565b9050919050565b7f43616d706169676e206e6f742061637469766500000000000000000000000000600082015250565b6000612262601383611b8b565b915061226d8261222c565b602082019050919050565b6000602082019050818103600083015261229181612255565b9050919050565b7f496e76616c6964206d696c6573746f6e65000000000000000000000000000000600082015250565b60006122ce601183611b8b565b91506122d982612298565b602082019050919050565b600060208201905081810360008301526122fd816122c1565b9050919050565b7f4d696c6573746f6e65206e6f742070656e64696e670000000000000000000000600082015250565b600061233a601583611b8b565b915061234582612304565b602082019050919050565b600060208201905081810360008301526123698161232d565b9050919050565b60006020820190506123856000830184611c10565b92915050565b7f4e6f74206f776e65720000000000000000000000000000000000000000000000600082015250565b60006123c1600983611b8b565b91506123cc8261238b565b602082019050919050565b600060208201905081810360008301526123f0816123b4565b9050919050565b7f43616d706169676e206e6f74206162616e646f6e656400000000000000000000600082015250565b600061242d601683611b8b565b9150612438826123f7565b602082019050919050565b6000602082019050818103600083015261245c81612420565b9050919050565b7f4e6f20646f6e6174696f6e20746f20726566756e640000000000000000000000600082015250565b6000612499601583611b8b565b91506124a482612463565b602082019050919050565b600060208201905081810360008301526124c88161248c565b9050919050565b7f4e487b7100000000000000000000000000000000000000000000000000000000600052601160045260246000fd5b600061250982611ad1565b915061251483611ad1565b925082820390508181111561252c5761252b6124cf565b5b92915050565b600061253d82611ad1565b915061254883611ad1565b925082820261255681611ad1565b9150828204841483151761256d5761256c6124cf565b5b5092915050565b7f4e487b7100000000000000000000000000000000000000000000000000000000600052601260045260246000fd5b60006125ae82611ad1565b91506125b983611ad1565b9250826125c9576125c8612574565b5b828204905092915050565b600081905092915050565b50565b60006125ef6000836125d4565b91506125fa826125df565b600082019050919050565b6000612610826125e2565b9150819050919050565b7f526566756e64206661696c656400000000000000000000000000000000000000600082015250565b6000612650600d83611b8b565b915061265b8261261a565b602082019050919050565b6000602082019050818103600083015261267f81612643565b9050919050565b600060408201905061269b6000830185611ccb565b6126a86020830184611c1f565b9392505050565b7f312d3130206d696c6573746f6e65732072657175697265640000000000000000600082015250565b60006126e5601883611b8b565b91506126f0826126af565b602082019050919050565b60006020820190508181036000830152612714816126d8565b9050919050565b600061272682611ad1565b91507fffffffffffffffffffffffffffffffffffffffffffffffffffffffffffffffff8203612758576127576124cf565b5b600182019050919050565b7f4e487b7100000000000000000000000000000000000000000000000000000000600052604160045260246000fd5b60008190508160005260206000209050919050565b60006020601f8301049050919050565b600082821b905092915050565b6000600883026127f47fffffffffffffffffffffffffffffffffffffffffffffffffffffffffffffffff826127b7565b6127fe86836127b7565b95508019841693508086168417925050509392505050565b6000819050919050565b600061283b61283661283184611ad1565b612816565b611ad1565b9050919050565b6000819050919050565b61285583612820565b61286961286182612842565b8484546127c4565b825550505050565b600090565b61287e612871565b61288981848461284c565b505050565b5b818110156128ad576128a2600082612876565b60018101905061288f565b5050565b601f8211156128f2576128c381612792565b6128cc846127a7565b810160208510156128db578190505b6128ef6128e7856127a7565b83018261288e565b50505b505050565b600082821c905092915050565b6000612915600019846008026128f7565b1980831691505092915050565b600061292e8383612904565b9150826002028217905092915050565b61294782611b80565b67ffffffffffffffff8111156129605761295f612763565b5b61296a8254612123565b6129758282856128b1565b600060209050601f8311600181146129a85760008415612996578287015190505b6129a08582612922565b865550612a08565b601f1984166129b686612792565b60005b828110156129de578489015182556001820191506020850194506020810190506129b9565b868310156129fb57848901516129f7601f891682612904565b8355505b6001600288020188555050505b505050505050565b600080fd5b600080fd5b600080fd5b60008083356001602003843603038112612a3c57612a3b612a10565b5b80840192508235915067ffffffffffffffff821115612a5e57612a5d612a15565b5b602083019250600182023603831315612a7a57612a79612a1a565b5b509250929050565b6000612a8d82611b07565b915060ff8203612aa057612a9f6124cf565b5b600182019050919050565b82818337600083830152505050565b6000612ac68385611b8b565b9350612ad3838584612aab565b612adc83611bc6565b840190509392505050565b60006060820190508181036000830152612b02818688612aba565b9050612b116020830185611ccb565b612b1e6040830184611c10565b95945050505050565b7f4d696c6573746f6e65206e6f742070726f706f73656400000000000000000000600082015250565b6000612b5d601683611b8b565b9150612b6882612b27565b602082019050919050565b60006020820190508181036000830152612b8c81612b50565b9050919050565b6000612b9e82611b07565b9150612ba983611b07565b9250828203905060ff811115612bc257612bc16124cf565b5b92915050565b6000612bd382611ad1565b9150612bde83611ad1565b9250828201905080821115612bf657612bf56124cf565b5b92915050565b6000604082019050612c116000830185611c10565b612c1e6020830184611c1f565b9392505050565b7f5472616e73666572206661696c65640000000000000000000000000000000000600082015250565b6000612c5b600f83611b8b565b9150612c6682612c25565b602082019050919050565b60006020820190508181036000830152612c8a81612c4e565b9050919050565b7f53656e6420736f6d65204d415449430000000000000000000000000000000000600082015250565b6000612cc7600f83611b8b565b9150612cd282612c91565b602082019050919050565b60006020820190508181036000830152612cf681612cba565b905091905056fea26469706673582212205261dd54d61c3e84e2c632d43eef72e699d3c77d4f80629e5383273a541ca55564736f6c63430008180033",
  "linkReferences": {},
  "deployedLinkReferences": {}
}