{
  "_format": "hh-sol-artifact-1",
  "contractName": "NexusDonate",
  "sourceName": "contracts/NexusDonate.sol",
  "abi": [
    {
      "inputs": [],
      "stateMutability": "nonpayable",
      "type": "constructor"
    },
    {
      "anonymous": false,
      "inputs": [
        {
          "indexed": true,
          "internalType": "uint256",
          "name": "id",
          "type": "uint256"
        },
        {
          "indexed": false,
          "internalType": "string",
          "name": "firebaseEventId",
          "type": "string"
        },
        {
          "indexed": false,
          "internalType": "address",
          "name": "organizer",
          "type": "address"
        }
      ],
      "name": "CampaignCreated",
      "type": "event"
    },
    {
      "anonymous": false,
      "inputs": [
        {
          "indexed": true,
          "internalType": "uint256",
          "name": "campaignId",
          "type": "uint256"
        },
        {
          "indexed": true,
          "internalType": "address",
          "name": "donor",
          "type": "address"
        },
        {
          "indexed": false,
          "internalType": "uint256",
          "name": "amount",
          "type": "uint256"
        }
      ],
      "name": "DonationMade",
      "type": "event"
    },
    {
      "anonymous": false,
      "inputs": [
        {
          "indexed": true,
          "internalType": "uint256",
          "name": "campaignId",
          "type": "uint256"
        },
        {
          "indexed": false,
          "internalType": "uint256",
          "name": "amount",
          "type": "uint256"
        }
      ],
      "name": "FundsWithdrawn",
      "type": "event"
    },
    {
      "inputs": [],
      "name": "campaignCount",
      "outputs": [
        {
          "internalType": "uint256",
          "name": "",
          "type": "uint256"
        }
      ],
      "stateMutability": "view",
      "type": "function"
    },
    {
      "inputs": [
        {
          "internalType": "uint256",
          "name": "",
          "type": "uint256"
        }
      ],
      "name": "campaigns",
      "outputs": [
        {
          "internalType": "string",
          "name": "firebaseEventId",
          "type": "string"
        },
        {
          "internalType": "address",
          "name": "organizer",
          "type": "address"
        },
        {
          "internalType": "uint256",
          "name": "totalRaised",
          "type": "uint256"
        },
        {
          "internalType": "bool",
          "name": "active",
          "type": "bool"
        }
      ],
      "stateMutability": "view",
      "type": "function"
    },
    {
      "inputs": [
        {
          "internalType": "string",
          "name": "_firebaseEventId",
          "type": "string"
        }
      ],
      "name": "createCampaign",
      "outputs": [
        {
          "internalType": "uint256",
          "name": "",
          "type": "uint256"
        }
      ],
      "stateMutability": "nonpayable",
      "type": "function"
    },
    {
      "inputs": [
        {
          "internalType": "uint256",
          "name": "_campaignId",
          "type": "uint256"
        }
      ],
      "name": "donate",
      "outputs": [],
      "stateMutability": "payable",
      "type": "function"
    },
    {
      "inputs": [
        {
          "internalType": "uint256",
          "name": "",
          "type": "uint256"
        },
        {
          "internalType": "uint256",
          "name": "",
          "type": "uint256"
        }
      ],
      "name": "donationHistory",
      "outputs": [
        {
          "internalType": "address",
          "name": "donor",
          "type": "address"
        },
        {
          "internalType": "uint256",
          "name": "amount",
          "type": "uint256"
        },
        {
          "internalType": "uint256",
          "name": "timestamp",
          "type": "uint256"
        }
      ],
      "stateMutability": "view",
      "type": "function"
    },
    {
      "inputs": [
        {
          "internalType": "uint256",
          "name": "_campaignId",
          "type": "uint256"
        }
      ],
      "name": "getCampaign",
      "outputs": [
        {
          "internalType": "string",
          "name": "firebaseEventId",
          "type": "string"
        },
        {
          "internalType": "address",
          "name": "organizer",
          "type": "address"
        },
        {
          "internalType": "uint256",
          "name": "totalRaised",
          "type": "uint256"
        },
        {
          "internalType": "bool",
          "name": "active",
          "type": "bool"
        }
      ],
      "stateMutability": "view",
      "type": "function"
    },
    {
      "inputs": [
        {
          "internalType": "uint256",
          "name": "_campaignId",
          "type": "uint256"
        },
        {
          "internalType": "uint256",
          "name": "_index",
          "type": "uint256"
        }
      ],
      "name": "getDonation",
      "outputs": [
        {
          "internalType": "address",
          "name": "donor",
          "type": "address"
        },
        {
          "internalType": "uint256",
          "name": "amount",
          "type": "uint256"
        },
        {
          "internalType": "uint256",
          "name": "timestamp",
          "type": "uint256"
        }
      ],
      "stateMutability": "view",
      "type": "function"
    },
    {
      "inputs": [
        {
          "internalType": "uint256",
          "name": "_campaignId",
          "type": "uint256"
        }
      ],
      "name": "getDonationCount",
      "outputs": [
        {
          "internalType": "uint256",
          "name": "",
          "type": "uint256"
        }
      ],
      "stateMutability": "view",
      "type": "function"
    },
    {
      "inputs": [],
      "name": "owner",
      "outputs": [
        {
          "internalType": "address",
          "name": "",
          "type": "address"
        }
      ],
      "stateMutability": "view",
      "type": "function"
    },
    {
      "inputs": [
        {
          "internalType": "uint256",
          "name": "_campaignId",
          "type": "uint256"
        }
      ],
      "name": "withdraw",
      "outputs": [],
      "stateMutability": "nonpayable",
      "type": "function"
    }
  ],
  "bytecode": "0x608060405234801561001057600080fd5b50336000806101000a81548173ffffffffffffffffffffffffffffffffffffffff021916908373ffffffffffffffffffffffffffffffffffffffff16021790555061152d806100606000396000f3fe6080604052600436106100915760003560e01c806376ff7bf41161005957806376ff7bf4146101a75780638da5cb5b146101e6578063bbc0cc5f14610211578063f14faf6f14610250578063fdbf9ff11461026c57610091565b8063141961bc146100965780632e1a7d4d146100d65780635598f8cc146100ff5780636eb8b37c1461013f5780637274e30d1461017c575b600080fd5b3480156100a257600080fd5b506100bd60048036038101906100b89190610b6d565b6102a9565b6040516100cd9493929190610c95565b60405180910390f35b3480156100e257600080fd5b506100fd60048036038101906100f89190610b6d565b61038e565b005b34801561010b57600080fd5b5061012660048036038101906101219190610b6d565b6105aa565b6040516101369493929190610c95565b60405180910390f35b34801561014b57600080fd5b5061016660048036038101906101619190610b6d565b6106a3565b6040516101739190610ce1565b60405180910390f35b34801561018857600080fd5b506101916106c3565b60405161019e9190610ce1565b60405180910390f35b3480156101b357600080fd5b506101ce60048036038101906101c99190610cfc565b6106c9565b6040516101dd93929190610d3c565b60405180910390f35b3480156101f257600080fd5b506101fb610741565b6040516102089190610d73565b60405180910390f35b34801561021d57600080fd5b5061023860048036038101906102339190610cfc565b610765565b60405161024793929190610d3c565b60405180910390f35b61026a60048036038101906102659190610b6d565b6107cc565b005b34801561027857600080fd5b50610293600480360381019061028e9190610df3565b6109af565b6040516102a09190610ce1565b60405180910390f35b60026020528060005260406000206000915090508060000180546102cc90610e6f565b80601f01602080910402602001604051908101604052809291908181526020018280546102f890610e6f565b80156103455780601f1061031a57610100808354040283529160200191610345565b820191906000526020600020905b81548152906001019060200180831161032857829003601f168201915b5050505050908060010160009054906101000a900473ffffffffffffffffffffffffffffffffffffffff16908060020154908060030160009054906101000a900460ff16905084565b60006002600083815260200190815260200160002090508060010160009054906101000a900473ffffffffffffffffffffffffffffffffffffffff1673ffffffffffffffffffffffffffffffffffffffff163373ffffffffffffffffffffffffffffffffffffffff1614610437576040517f08c379a000000000000000000000000000000000000000000000000000000000815260040161042e90610eec565b60405180910390fd5b60004790506000811161047f576040517f08c379a000000000000000000000000000000000000000000000000000000000815260040161047690610f58565b60405180910390fd5b60008260030160006101000a81548160ff02191690831515021790555060008260010160009054906101000a900473ffffffffffffffffffffffffffffffffffffffff1673ffffffffffffffffffffffffffffffffffffffff16826040516104e690610fa9565b60006040518083038185875af1925050503d8060008114610523576040519150601f19603f3d011682016040523d82523d6000602084013e610528565b606091505b505090508061056c576040517f08c379a00000000000000000000000000000000000000000000000000000000081526004016105639061100a565b60405180910390fd5b837fd66662c0ded9e58fd31d5e44944bcfd07ffc15e6927ecc1382e7941cb7bd24c48360405161059c9190610ce1565b60405180910390a250505050565b6060600080600080600260008781526020019081526020016000209050806000018160010160009054906101000a900473ffffffffffffffffffffffffffffffffffffffff1682600201548360030160009054906101000a900460ff1683805461061390610e6f565b80601f016020809104026020016040519081016040528092919081815260200182805461063f90610e6f565b801561068c5780601f106106615761010080835404028352916020019161068c565b820191906000526020600020905b81548152906001019060200180831161066f57829003601f168201915b505050505093509450945094509450509193509193565b600060036000838152602001908152602001600020805490509050919050565b60015481565b6000806000806003600087815260200190815260200160002085815481106106f4576106f361102a565b5b906000526020600020906003020190508060000160009054906101000a900473ffffffffffffffffffffffffffffffffffffffff1681600101548260020154935093509350509250925092565b60008054906101000a900473ffffffffffffffffffffffffffffffffffffffff1681565b6003602052816000526040600020818154811061078157600080fd5b9060005260206000209060030201600091509150508060000160009054906101000a900473ffffffffffffffffffffffffffffffffffffffff16908060010154908060020154905083565b6000341161080f576040517f08c379a0000000000000000000000000000000000000000000000000000000008152600401610806906110a5565b60405180910390fd5b60006002600083815260200190815260200160002090508060030160009054906101000a900460ff16610877576040517f08c379a000000000000000000000000000000000000000000000000000000000815260040161086e90611111565b60405180910390fd5b3481600201600082825461088b9190611160565b925050819055506003600083815260200190815260200160002060405180606001604052803373ffffffffffffffffffffffffffffffffffffffff16815260200134815260200142815250908060018154018082558091505060019003906000526020600020906003020160009091909190915060008201518160000160006101000a81548173ffffffffffffffffffffffffffffffffffffffff021916908373ffffffffffffffffffffffffffffffffffffffff160217905550602082015181600101556040820151816002015550503373ffffffffffffffffffffffffffffffffffffffff16827fe555da28bdb778f65d22794d88927ebaeca03f7de9d1b7d39245bc8fb5ca078a346040516109a39190610ce1565b60405180910390a35050565b600080600160008154809291906109c590611194565b919050559050604051806080016040528085858080601f016020809104026020016040519081016040528093929190818152602001838380828437600081840152601f19601f8201169050808301925050505050505081526020013373ffffffffffffffffffffffffffffffffffffffff1681526020016000815260200160011515815250600260008381526020019081526020016000206000820151816000019081610a7291906113b7565b5060208201518160010160006101000a81548173ffffffffffffffffffffffffffffffffffffffff021916908373ffffffffffffffffffffffffffffffffffffffff1602179055506040820151816002015560608201518160030160006101000a81548160ff021916908315150217905550905050807f2750eae5c1c1d8000d7e674f15576524a1b7e24f4a33052e9d80ce3889556e39858533604051610b1b939291906114c5565b60405180910390a28091505092915050565b600080fd5b600080fd5b6000819050919050565b610b4a81610b37565b8114610b5557600080fd5b50565b600081359050610b6781610b41565b92915050565b600060208284031215610b8357610b82610b2d565b5b6000610b9184828501610b58565b91505092915050565b600081519050919050565b600082825260208201905092915050565b60005b83811015610bd4578082015181840152602081019050610bb9565b60008484015250505050565b6000601f19601f8301169050919050565b6000610bfc82610b9a565b610c068185610ba5565b9350610c16818560208601610bb6565b610c1f81610be0565b840191505092915050565b600073ffffffffffffffffffffffffffffffffffffffff82169050919050565b6000610c5582610c2a565b9050919050565b610c6581610c4a565b82525050565b610c7481610b37565b82525050565b60008115159050919050565b610c8f81610c7a565b82525050565b60006080820190508181036000830152610caf8187610bf1565b9050610cbe6020830186610c5c565b610ccb6040830185610c6b565b610cd86060830184610c86565b95945050505050565b6000602082019050610cf66000830184610c6b565b92915050565b60008060408385031215610d1357610d12610b2d565b5b6000610d2185828601610b58565b9250506020610d3285828601610b58565b9150509250929050565b6000606082019050610d516000830186610c5c565b610d5e6020830185610c6b565b610d6b6040830184610c6b565b949350505050565b6000602082019050610d886000830184610c5c565b92915050565b600080fd5b600080fd5b600080fd5b60008083601f840112610db357610db2610d8e565b5b8235905067ffffffffffffffff811115610dd057610dcf610d93565b5b602083019150836001820283011115610dec57610deb610d98565b5b9250929050565b60008060208385031215610e0a57610e09610b2d565b5b600083013567ffffffffffffffff811115610e2857610e27610b32565b5b610e3485828601610d9d565b92509250509250929050565b7f4e487b7100000000000000000000000000000000000000000000000000000000600052602260045260246000fd5b60006002820490506001821680610e8757607f821691505b602082108103610e9a57610e99610e40565b5b50919050565b7f4e6f74206f7267616e697a657200000000000000000000000000000000000000600082015250565b6000610ed6600d83610ba5565b9150610ee182610ea0565b602082019050919050565b60006020820190508181036000830152610f0581610ec9565b9050919050565b7f4e6f2066756e6473000000000000000000000000000000000000000000000000600082015250565b6000610f42600883610ba5565b9150610f4d82610f0c565b602082019050919050565b60006020820190508181036000830152610f7181610f35565b9050919050565b600081905092915050565b50565b6000610f93600083610f78565b9150610f9e82610f83565b600082019050919050565b6000610fb482610f86565b9150819050919050565b7f5472616e73666572206661696c65640000000000000000000000000000000000600082015250565b6000610ff4600f83610ba5565b9150610fff82610fbe565b602082019050919050565b6000602082019050818103600083015261102381610fe7565b9050919050565b7f4e487b7100000000000000000000000000000000000000000000000000000000600052603260045260246000fd5b7f53656e6420736f6d652045544800000000000000000000000000000000000000600082015250565b600061108f600d83610ba5565b915061109a82611059565b602082019050919050565b600060208201905081810360008301526110be81611082565b9050919050565b7f43616d706169676e206e6f742061637469766500000000000000000000000000600082015250565b60006110fb601383610ba5565b9150611106826110c5565b602082019050919050565b6000602082019050818103600083015261112a816110ee565b9050919050565b7f4e487b7100000000000000000000000000000000000000000000000000000000600052601160045260246000fd5b600061116b82610b37565b915061117683610b37565b925082820190508082111561118e5761118d611131565b5b92915050565b600061119f82610b37565b91507fffffffffffffffffffffffffffffffffffffffffffffffffffffffffffffffff82036111d1576111d0611131565b5b600182019050919050565b7f4e487b7100000000000000000000000000000000000000000000000000000000600052604160045260246000fd5b60008190508160005260206000209050919050565b60006020601f8301049050919050565b600082821b905092915050565b60006008830261126d7fffffffffffffffffffffffffffffffffffffffffffffffffffffffffffffffff82611230565b6112778683611230565b95508019841693508086168417925050509392505050565b6000819050919050565b60006112b46112af6112aa84610b37565b61128f565b610b37565b9050919050565b6000819050919050565b6112ce83611299565b6112e26112da826112bb565b84845461123d565b825550505050565b600090565b6112f76112ea565b6113028184846112c5565b505050565b5b818110156113265761131b6000826112ef565b600181019050611308565b5050565b601f82111561136b5761133c8161120b565b61134584611220565b81016020851015611354578190505b61136861136085611220565b830182611307565b50505b505050565b600082821c905092915050565b600061138e60001984600802611370565b1980831691505092915050565b60006113a7838361137d565b9150826002028217905092915050565b6113c082610b9a565b67ffffffffffffffff8111156113d9576113d86111dc565b5b6113e38254610e6f565b6113ee82828561132a565b600060209050601f831160018114611421576000841561140f578287015190505b611419858261139b565b865550611481565b601f19841661142f8661120b565b60005b8281101561145757848901518255600182019150602085019450602081019050611432565b868310156114745784890151611470601f89168261137d565b8355505b6001600288020188555050505b505050505050565b82818337600083830152505050565b60006114a48385610ba5565b93506114b1838584611489565b6114ba83610be0565b840190509392505050565b600060408201905081810360008301526114e0818587611498565b90506114ef6020830184610c5c565b94935050505056fea2646970667358221220ee54ad60121e9ce339c74ccbc196ba60a92d51ae3bd4cff443b7846124079ed564736f6c63430008180033",
  "linkReferences": {},
  "deployedLinkReferences": {}
}