{
  "_format": "hh-sol-artifact-1",
  "contractName": "NexusReputation",
  "sourceName": "contracts/NexusReputation.sol",
  "abi": [
    {
      "inputs": [],
      "stateMutability": "nonpayable",
      "type": "constructor"
    },
    {
      "anonymous": false,
      "inputs": [
        {
          "indexed": true,
          "internalType": "address",
          "name": "owner",
          "type": "address"
        },
        {
          "indexed": true,
          "internalType": "address",
          "name": "approved",
          "type": "address"
        },
        {
          "indexed": true,
          "internalType": "uint256",
          "name": "tokenId",
          "type": "uint256"
        }
      ],
      "name": "Approval",
      "type": "event"
    },
    {
      "anonymous": false,
      "inputs": [
        {
          "indexed": true,
          "internalType": "address",
          "name": "owner",
          "type": "address"
        },
        {
          "indexed": true,
          "internalType": "address",
          "name": "operator",
          "type": "address"
        },
        {
          "indexed": false,
          "internalType": "bool",
          "name": "approved",
          "type": "bool"
        }
      ],
      "name": "ApprovalForAll",
      "type": "event"
    },
    {
      "anonymous": false,
      "inputs": [
        {
          "indexed": true,
          "internalType": "address",
          "name": "recipient",
          "type": "address"
        },
        {
          "indexed": true,
          "internalType": "uint256",
          "name": "tokenId",
          "type": "uint256"
        },
        {
          "indexed": false,
          "internalType": "string",
          "name": "badgeType",
          "type": "string"
        },
        {
          "indexed": false,
          "internalType": "uint256",
          "name": "timestamp",
          "type": "uint256"
        }
      ],
      "name": "BadgeMinted",
      "type": "event"
    },
    {
      "anonymous": false,
      "inputs": [
        {
          "indexed": false,
          "internalType": "uint256",
          "name": "_fromTokenId",
          "type": "uint256"
        },
        {
          "indexed": false,
          "internalType": "uint256",
          "name": "_toTokenId",
          "type": "uint256"
        }
      ],
      "name": "BatchMetadataUpdate",
      "type": "event"
    },
    {
      "anonymous": false,
      "inputs": [
        {
          "indexed": false,
          "internalType": "uint256",
          "name": "_tokenId",
          "type": "uint256"
        }
      ],
      "name": "MetadataUpdate",
      "type": "event"
    },
    {
      "anonymous": false,
      "inputs": [
        {
          "indexed": true,
          "internalType": "address",
          "name": "from",
          "type": "address"
        },
        {
          "indexed": true,
          "internalType": "address",
          "name": "to",
          "type": "address"
        },
        {
          "indexed": true,
          "internalType": "uint256",
          "name": "tokenId",
          "type": "uint256"
        }
      ],
      "name": "Transfer",
      "type": "event"
    },
    {
      "inputs": [
        {
          "internalType": "address",
          "name": "to",
          "type": "address"
        },
        {
          "internalType": "uint256",
          "name": "tokenId",
          "type": "uint256"
        }
      ],
      "name": "approve",
      "outputs": [],
      "stateMutability": "nonpayable",
      "type": "function"
    },
    {
      "inputs": [
        {
          "internalType": "uint256",
          "name": "",
          "type": "uint256"
        }
      ],
      "name": "badges",
      "outputs": [
        {
          "internalType": "string",
          "name": "badgeType",
          "type": "string"
        },
        {
          "internalType": "address",
          "name": "recipient",
          "type": "address"
        },
        {
          "internalType": "uint256",
          "name": "mintedAt",
          "type": "uint256"
        }
      ],
      "stateMutability": "view",
      "type": "function"
    },
    {
      "inputs": [
        {
          "internalType": "address",
          "name": "owner",
          "type": "address"
        }
      ],
      "name": "balanceOf",
      "outputs": [
        {
          "internalType": "uint256",
          "name": "",
          "type": "uint256"
        }
      ],
      "stateMutability": "view",
      "type": "function"
    },
    {
      "inputs": [
        {
          "internalType": "uint256",
          "name": "tokenId",
          "type": "uint256"
        }
      ],
      "name": "getApproved",
      "outputs": [
        {
          "internalType": "address",
          "name": "",
          "type": "address"
        }
      ],
      "stateMutability": "view",
      "type": "function"
    },
    {
      "inputs": [
        {
          "internalType": "uint256",
          "name": "_tokenId",
          "type": "uint256"
        }
      ],
      "name": "getBadgeInfo",
      "outputs": [
        {
          "internalType": "string",
          "name": "badgeType",
          "type": "string"
        },
        {
          "internalType": "address",
          "name": "recipient",
          "type": "address"
        },
        {
          "internalType": "uint256",
          "name": "mintedAt",
          "type": "uint256"
        }
      ],
      "stateMutability": "view",
      "type": "function"
    },
    {
      "inputs": [
        {
          "internalType": "address",
          "name": "_wallet",
          "type": "address"
        }
      ],
      "name": "getBadgesByOwner",
      "outputs": [
        {
          "internalType": "uint256[]",
          "name": "",
          "type": "uint256[]"
        }
      ],
      "stateMutability": "view",
      "type": "function"
    },
    {
      "inputs": [
        {
          "internalType": "address",
          "name": "owner",
          "type": "address"
        },
        {
          "internalType": "address",
          "name": "operator",
          "type": "address"
        }
      ],
      "name": "isApprovedForAll",
      "outputs": [
        {
          "internalType": "bool",
          "name": "",
          "type": "bool"
        }
      ],
      "stateMutability": "view",
      "type": "function"
    },
    {
      "inputs": [
        {
          "internalType": "address",
          "name": "_recipient",
          "type": "address"
        },
        {
          "internalType": "string",
          "name": "_badgeType",
          "type": "string"
        },
        {
          "internalType": "string",
          "name": "_metadataURI",
          "type": "string"
        }
      ],
      "name": "mintBadge",
      "outputs": [
        {
          "internalType": "uint256",
          "name": "",
          "type": "uint256"
        }
      ],
      "stateMutability": "nonpayable",
      "type": "function"
    },
    {
      "inputs": [],
      "name": "name",
      "outputs": [
        {
          "internalType": "string",
          "name": "",
          "type": "string"
        }
      ],
      "stateMutability": "view",
      "type": "function"
    },
    {
      "inputs": [],
      "name": "owner",
      "outputs": [
        {
          "internalType": "address",
          "name": "",
          "type": "address"
        }
      ],
      "stateMutability": "view",
      "type": "function"
    },
    {
      "inputs": [
        {
          "internalType": "uint256",
          "name": "tokenId",
          "type": "uint256"
        }
      ],
      "name": "ownerOf",
      "outputs": [
        {
          "internalType": "address",
          "name": "",
          "type": "address"
        }
      ],
      "stateMutability": "view",
      "type": "function"
    },
    {
      "inputs": [
        {
          "internalType": "address",
          "name": "from",
          "type": "address"
        },
        {
          "internalType": "address",
          "name": "to",
          "type": "address"
        },
        {
          "internalType": "uint256",
          "name": "tokenId",
          "type": "uint256"
        }
      ],
      "name": "safeTransferFrom",
      "outputs": [],
      "stateMutability": "nonpayable",
      "type": "function"
    },
    {
      "inputs": [
        {
          "internalType": "address",
          "name": "from",
          "type": "address"
        },
        {
          "internalType": "address",
          "name": "to",
          "type": "address"
        },
        {
          "internalType": "uint256",
          "name": "tokenId",
          "type": "uint256"
        },
        {
          "internalType": "bytes",
          "name": "data",
          "type": "bytes"
        }
      ],
      "name": "safeTransferFrom",
      "outputs": [],
      "stateMutability": "nonpayable",
      "type": "function"
    },
    {
      "inputs": [
        {
          "internalType": "address",
          "name": "operator",
          "type": "address"
        },
        {
          "internalType": "bool",
          "name": "approved",
          "type": "bool"
        }
      ],
      "name": "setApprovalForAll",
      "outputs": [],
      "stateMutability": "nonpayable",
      "type": "function"
    },
    {
      "inputs": [
        {
          "internalType": "bytes4",
          "name": "interfaceId",
          "type": "bytes4"
        }
      ],
      "name": "supportsInterface",
      "outputs": [
        {
          "internalType": "bool",
          "name": "",
          "type": "bool"
        }
      ],
      "stateMutability": "view",
      "type": "function"
    },
    {
      "inputs": [],
      "name": "symbol",
      "outputs": [
        {
          "internalType": "string",
          "name": "",
          "type": "string"
        }
      ],
      "stateMutability": "view",
      "type": "function"
    },
    {
      "inputs": [
        {
          "internalType": "uint256",
          "name": "tokenId",
          "type": "uint256"
        }
      ],
      "name": "tokenURI",
      "outputs": [
        {
          "internalType": "string",
          "name": "",
          "type": "string"
        }
      ],
      "stateMutability": "view",
      "type": "function"
    },
    {
      "inputs": [],
      "name": "totalMinted",
      "outputs": [
        {
          "internalType": "uint256",
          "name": "",
          "type": "uint256"
        }
      ],
      "stateMutability": "view",
      "type": "function"
    },
    {
      "inputs": [
        {
          "internalType": "address",
          "name": "from",
          "type": "address"
        },
        {
          "internalType": "address",
          "name": "to",
          "type": "address"
        },
        {
          "internalType": "uint256",
          "name": "tokenId",
          "type": "uint256"
        }
      ],
      "name": "transferFrom",
      "outputs": [],
      "stateMutability": "nonpayable",
      "type": "function"
    },
    {
      "inputs": [
        {
          "internalType": "address",
          "name": "",
          "type": "address"
        },
        {
          "internalType": "uint256",
          "name": "",
          "type": "uint256"
        }
      ],
      "name": "walletBadges",
      "outputs": [
        {
          "internalType": "uint256",
          "name": "",
          "type": "uint256"
        }
      ],
      "stateMutability": "view",
      "type": "function"
    }
  ],
  "bytecode": "0x60806040523480156200001157600080fd5b506040518060400160405280601381526020017f4e657875734169642052657075746174696f6e000000000000000000000000008152506040518060400160405280600481526020017f4e5245500000000000000000000000000000000000000000000000000000000081525081600090816200008f919062000365565b508060019081620000a1919062000365565b50505033600760006101000a81548173ffffffffffffffffffffffffffffffffffffffff021916908373ffffffffffffffffffffffffffffffffffffffff1602179055506200044c565b600081519050919050565b7f4e487b7100000000000000000000000000000000000000000000000000000000600052604160045260246000fd5b7f4e487b7100000000000000000000000000000000000000000000000000000000600052602260045260246000fd5b600060028204905060018216806200016d57607f821691505b60208210810362000183576200018262000125565b5b50919050565b60008190508160005260206000209050919050565b60006020601f8301049050919050565b600082821b905092915050565b600060088302620001ed7fffffffffffffffffffffffffffffffffffffffffffffffffffffffffffffffff82620001ae565b620001f98683620001ae565b95508019841693508086168417925050509392505050565b6000819050919050565b6000819050919050565b600062000246620002406200023a8462000211565b6200021b565b62000211565b9050919050565b6000819050919050565b620002628362000225565b6200027a62000271826200024d565b848454620001bb565b825550505050565b600090565b6200029162000282565b6200029e81848462000257565b505050565b5b81811015620002c657620002ba60008262000287565b600181019050620002a4565b5050565b601f8211156200031557620002df8162000189565b620002ea846200019e565b81016020851015620002fa578190505b6200031262000309856200019e565b830182620002a3565b50505b505050565b600082821c905092915050565b60006200033a600019846008026200031a565b1980831691505092915050565b600062000355838362000327565b9150826002028217905092915050565b6200037082620000eb565b67ffffffffffffffff8111156200038c576200038b620000f6565b5b62000398825462000154565b620003a5828285620002ca565b600060209050601f831160018114620003dd5760008415620003c8578287015190505b620003d4858262000347565b86555062000444565b601f198416620003ed8662000189565b60005b828110156200041757848901518255600182019150602085019450602081019050620003f0565b8683101562000437578489015162000433601f89168262000327565b8355505b6001600288020188555050505b505050505050565b6135a1806200045c6000396000f3fe608060405234801561001057600080fd5b506004361061012c5760003560e01c806395d89b41116100ad578063b88d4fde11610071578063b88d4fde1461036b578063c87b56dd14610387578063c9bb1ff5146103b7578063e2045b5e146103e7578063e985e9c5146104195761012c565b806395d89b41146102b157806398e36d8b146102cf5780639df8cbe514610301578063a22cb46514610331578063a2309ff81461034d5761012c565b806342842e0e116100f457806342842e0e146101e7578063587c753d146102035780636352211e1461023357806370a08231146102635780638da5cb5b146102935761012c565b806301ffc9a71461013157806306fdde0314610161578063081812fc1461017f578063095ea7b3146101af57806323b872dd146101cb575b600080fd5b61014b600480360381019061014691906121b1565b610449565b60405161015891906121f9565b60405180910390f35b6101696104aa565b60405161017691906122a4565b60405180910390f35b610199600480360381019061019491906122fc565b61053c565b6040516101a6919061236a565b60405180910390f35b6101c960048036038101906101c491906123b1565b610582565b005b6101e560048036038101906101e091906123f1565b610699565b005b61020160048036038101906101fc91906123f1565b6106f9565b005b61021d600480360381019061021891906124a9565b610719565b60405161022a919061254d565b60405180910390f35b61024d600480360381019061024891906122fc565b610a42565b60405161025a919061236a565b60405180910390f35b61027d60048036038101906102789190612568565b610ac8565b60405161028a919061254d565b60405180910390f35b61029b610b7f565b6040516102a8919061236a565b60405180910390f35b6102b9610ba5565b6040516102c691906122a4565b60405180910390f35b6102e960048036038101906102e491906122fc565b610c37565b6040516102f893929190612595565b60405180910390f35b61031b60048036038101906103169190612568565b610d09565b6040516103289190612691565b60405180910390f35b61034b600480360381019061034691906126df565b610da0565b005b610355610db6565b604051610362919061254d565b60405180910390f35b6103856004803603810190610380919061284f565b610dc7565b005b6103a1600480360381019061039c91906122fc565b610e29565b6040516103ae91906122a4565b60405180910390f35b6103d160048036038101906103cc91906123b1565b610f3b565b6040516103de919061254d565b60405180910390f35b61040160048036038101906103fc91906122fc565b610f6c565b60405161041093929190612595565b60405180910390f35b610433600480360381019061042e91906128d2565b611050565b60405161044091906121f9565b60405180910390f35b6000634906490660e01b7bffffffffffffffffffffffffffffffffffffffffffffffffffffffff1916827bffffffffffffffffffffffffffffffffffffffffffffffffffffffff191614806104a357506104a2826110e4565b5b9050919050565b6060600080546104b990612941565b80601f01602080910402602001604051908101604052809291908181526020018280546104e590612941565b80156105325780601f1061050757610100808354040283529160200191610532565b820191906000526020600020905b81548152906001019060200180831161051557829003601f168201915b5050505050905090565b6000610547826111c6565b6004600083815260200190815260200160002060009054906101000a900473ffffffffffffffffffffffffffffffffffffffff169050919050565b600061058d82610a42565b90508073ffffffffffffffffffffffffffffffffffffffff168373ffffffffffffffffffffffffffffffffffffffff16036105fd576040517f08c379a00000000000000000000000000000000000000000000000000000000081526004016105f4906129e4565b60405180910390fd5b8073ffffffffffffffffffffffffffffffffffffffff1661061c611211565b73ffffffffffffffffffffffffffffffffffffffff16148061064b575061064a81610645611211565b611050565b5b61068a576040517f08c379a000000000000000000000000000000000000000000000000000000000815260040161068190612a76565b60405180910390fd5b6106948383611219565b505050565b6106aa6106a4611211565b826112d2565b6106e9576040517f08c379a00000000000000000000000000000000000000000000000000000000081526004016106e090612b08565b60405180910390fd5b6106f4838383611367565b505050565b61071483838360405180602001604052806000815250610dc7565b505050565b6000600760009054906101000a900473ffffffffffffffffffffffffffffffffffffffff1673ffffffffffffffffffffffffffffffffffffffff163373ffffffffffffffffffffffffffffffffffffffff16146107ab576040517f08c379a00000000000000000000000000000000000000000000000000000000081526004016107a290612b74565b60405180910390fd5b600073ffffffffffffffffffffffffffffffffffffffff168673ffffffffffffffffffffffffffffffffffffffff160361081a576040517f08c379a000000000000000000000000000000000000000000000000000000000815260040161081190612be0565b60405180910390fd5b6108246008611660565b60006108306008611676565b905061083c8782611684565b61088a8185858080601f016020809104026020016040519081016040528093929190818152602001838380828437600081840152601f19601f820116905080830192505050505050506116a2565b604051806060016040528087878080601f016020809104026020016040519081016040528093929190818152602001838380828437600081840152601f19601f8201169050808301925050505050505081526020018873ffffffffffffffffffffffffffffffffffffffff168152602001428152506009600083815260200190815260200160002060008201518160000190816109279190612dac565b5060208201518160010160006101000a81548173ffffffffffffffffffffffffffffffffffffffff021916908373ffffffffffffffffffffffffffffffffffffffff16021790555060408201518160020155905050600a60008873ffffffffffffffffffffffffffffffffffffffff1673ffffffffffffffffffffffffffffffffffffffff168152602001908152602001600020819080600181540180825580915050600190039060005260206000200160009091909190915055808773ffffffffffffffffffffffffffffffffffffffff167f067ded8e7caec1ffe7635756e4427008bd694dd35bb2bcb0465fe3efa683f3e3888842604051610a2d93929190612eab565b60405180910390a38091505095945050505050565b600080610a4e83611746565b9050600073ffffffffffffffffffffffffffffffffffffffff168173ffffffffffffffffffffffffffffffffffffffff1603610abf576040517f08c379a0000000000000000000000000000000000000000000000000000000008152600401610ab690612f29565b60405180910390fd5b80915050919050565b60008073ffffffffffffffffffffffffffffffffffffffff168273ffffffffffffffffffffffffffffffffffffffff1603610b38576040517f08c379a0000000000000000000000000000000000000000000000000000000008152600401610b2f90612fbb565b60405180910390fd5b600360008373ffffffffffffffffffffffffffffffffffffffff1673ffffffffffffffffffffffffffffffffffffffff168152602001908152602001600020549050919050565b600760009054906101000a900473ffffffffffffffffffffffffffffffffffffffff1681565b606060018054610bb490612941565b80601f0160208091040260200160405190810160405280929190818152602001828054610be090612941565b8015610c2d5780601f10610c0257610100808354040283529160200191610c2d565b820191906000526020600020905b815481529060010190602001808311610c1057829003601f168201915b5050505050905090565b6009602052806000526040600020600091509050806000018054610c5a90612941565b80601f0160208091040260200160405190810160405280929190818152602001828054610c8690612941565b8015610cd35780601f10610ca857610100808354040283529160200191610cd3565b820191906000526020600020905b815481529060010190602001808311610cb657829003601f168201915b5050505050908060010160009054906101000a900473ffffffffffffffffffffffffffffffffffffffff16908060020154905083565b6060600a60008373ffffffffffffffffffffffffffffffffffffffff1673ffffffffffffffffffffffffffffffffffffffff168152602001908152602001600020805480602002602001604051908101604052809291908181526020018280548015610d9457602002820191906000526020600020905b815481526020019060010190808311610d80575b50505050509050919050565b610db2610dab611211565b8383611783565b5050565b6000610dc26008611676565b905090565b610dd8610dd2611211565b836112d2565b610e17576040517f08c379a0000000000000000000000000000000000000000000000000000000008152600401610e0e90612b08565b60405180910390fd5b610e23848484846118ef565b50505050565b6060610e34826111c6565b6000600660008481526020019081526020016000208054610e5490612941565b80601f0160208091040260200160405190810160405280929190818152602001828054610e8090612941565b8015610ecd5780601f10610ea257610100808354040283529160200191610ecd565b820191906000526020600020905b815481529060010190602001808311610eb057829003601f168201915b505050505090506000610ede61194b565b90506000815103610ef3578192505050610f36565b600082511115610f28578082604051602001610f10929190613017565b60405160208183030381529060405292505050610f36565b610f3184611962565b925050505b919050565b600a6020528160005260406000208181548110610f5757600080fd5b90600052602060002001600091509150505481565b60606000806000600960008681526020019081526020016000209050806000018160010160009054906101000a900473ffffffffffffffffffffffffffffffffffffffff168260020154828054610fc290612941565b80601f0160208091040260200160405190810160405280929190818152602001828054610fee90612941565b801561103b5780601f106110105761010080835404028352916020019161103b565b820191906000526020600020905b81548152906001019060200180831161101e57829003601f168201915b50505050509250935093509350509193909250565b6000600560008473ffffffffffffffffffffffffffffffffffffffff1673ffffffffffffffffffffffffffffffffffffffff16815260200190815260200160002060008373ffffffffffffffffffffffffffffffffffffffff1673ffffffffffffffffffffffffffffffffffffffff16815260200190815260200160002060009054906101000a900460ff16905092915050565b60007f80ac58cd000000000000000000000000000000000000000000000000000000007bffffffffffffffffffffffffffffffffffffffffffffffffffffffff1916827bffffffffffffffffffffffffffffffffffffffffffffffffffffffff191614806111af57507f5b5e139f000000000000000000000000000000000000000000000000000000007bffffffffffffffffffffffffffffffffffffffffffffffffffffffff1916827bffffffffffffffffffffffffffffffffffffffffffffffffffffffff1916145b806111bf57506111be826119ca565b5b9050919050565b6111cf81611a34565b61120e576040517f08c379a000000000000000000000000000000000000000000000000000000000815260040161120590612f29565b60405180910390fd5b50565b600033905090565b816004600083815260200190815260200160002060006101000a81548173ffffffffffffffffffffffffffffffffffffffff021916908373ffffffffffffffffffffffffffffffffffffffff160217905550808273ffffffffffffffffffffffffffffffffffffffff1661128c83610a42565b73ffffffffffffffffffffffffffffffffffffffff167f8c5be1e5ebec7d5bd14f71427d1e84f3dd0314c0f7b2291e5b200ac8c7c3b92560405160405180910390a45050565b6000806112de83610a42565b90508073ffffffffffffffffffffffffffffffffffffffff168473ffffffffffffffffffffffffffffffffffffffff161480611320575061131f8185611050565b5b8061135e57508373ffffffffffffffffffffffffffffffffffffffff166113468461053c565b73ffffffffffffffffffffffffffffffffffffffff16145b91505092915050565b8273ffffffffffffffffffffffffffffffffffffffff1661138782610a42565b73ffffffffffffffffffffffffffffffffffffffff16146113dd576040517f08c379a00000000000000000000000000000000000000000000000000000000081526004016113d4906130ad565b60405180910390fd5b600073ffffffffffffffffffffffffffffffffffffffff168273ffffffffffffffffffffffffffffffffffffffff160361144c576040517f08c379a00000000000000000000000000000000000000000000000000000000081526004016114439061313f565b60405180910390fd5b6114598383836001611a75565b8273ffffffffffffffffffffffffffffffffffffffff1661147982610a42565b73ffffffffffffffffffffffffffffffffffffffff16146114cf576040517f08c379a00000000000000000000000000000000000000000000000000000000081526004016114c6906130ad565b60405180910390fd5b6004600082815260200190815260200160002060006101000a81549073ffffffffffffffffffffffffffffffffffffffff02191690556001600360008573ffffffffffffffffffffffffffffffffffffffff1673ffffffffffffffffffffffffffffffffffffffff168152602001908152602001600020600082825403925050819055506001600360008473ffffffffffffffffffffffffffffffffffffffff1673ffffffffffffffffffffffffffffffffffffffff16815260200190815260200160002060008282540192505081905550816002600083815260200190815260200160002060006101000a81548173ffffffffffffffffffffffffffffffffffffffff021916908373ffffffffffffffffffffffffffffffffffffffff160217905550808273ffffffffffffffffffffffffffffffffffffffff168473ffffffffffffffffffffffffffffffffffffffff167fddf252ad1be2c89b69c2b068fc378daa952ba7f163c4a11628f55a4df523b3ef60405160405180910390a461165b8383836001611af6565b505050565b6001816000016000828254019250508190555050565b600081600001549050919050565b61169e828260405180602001604052806000815250611afc565b5050565b6116ab82611a34565b6116ea576040517f08c379a00000000000000000000000000000000000000000000000000000000081526004016116e1906131d1565b60405180910390fd5b8060066000848152602001908152602001600020908161170a9190612dac565b507ff8e1a15aba9398e019f0b49df1a4fde98ee17ae345cb5f6b5e2c27f5033e8ce78260405161173a919061254d565b60405180910390a15050565b60006002600083815260200190815260200160002060009054906101000a900473ffffffffffffffffffffffffffffffffffffffff169050919050565b8173ffffffffffffffffffffffffffffffffffffffff168373ffffffffffffffffffffffffffffffffffffffff16036117f1576040517f08c379a00000000000000000000000000000000000000000000000000000000081526004016117e89061323d565b60405180910390fd5b80600560008573ffffffffffffffffffffffffffffffffffffffff1673ffffffffffffffffffffffffffffffffffffffff16815260200190815260200160002060008473ffffffffffffffffffffffffffffffffffffffff1673ffffffffffffffffffffffffffffffffffffffff16815260200190815260200160002060006101000a81548160ff0219169083151502179055508173ffffffffffffffffffffffffffffffffffffffff168373ffffffffffffffffffffffffffffffffffffffff167f17307eab39ab6107e8899845ad3d59bd9653f200f220920489ca2b5937696c31836040516118e291906121f9565b60405180910390a3505050565b6118fa848484611367565b61190684848484611b57565b611945576040517f08c379a000000000000000000000000000000000000000000000000000000000815260040161193c906132cf565b60405180910390fd5b50505050565b606060405180602001604052806000815250905090565b606061196d826111c6565b600061197761194b565b9050600081511161199757604051806020016040528060008152506119c2565b806119a184611cde565b6040516020016119b2929190613017565b6040516020818303038152906040525b915050919050565b60007f01ffc9a7000000000000000000000000000000000000000000000000000000007bffffffffffffffffffffffffffffffffffffffffffffffffffffffff1916827bffffffffffffffffffffffffffffffffffffffffffffffffffffffff1916149050919050565b60008073ffffffffffffffffffffffffffffffffffffffff16611a5683611746565b73ffffffffffffffffffffffffffffffffffffffff1614159050919050565b600073ffffffffffffffffffffffffffffffffffffffff168473ffffffffffffffffffffffffffffffffffffffff1614611ae4576040517f08c379a0000000000000000000000000000000000000000000000000000000008152600401611adb90613361565b60405180910390fd5b611af084848484611dac565b50505050565b50505050565b611b068383611db2565b611b136000848484611b57565b611b52576040517f08c379a0000000000000000000000000000000000000000000000000000000008152600401611b49906132cf565b60405180910390fd5b505050565b6000611b788473ffffffffffffffffffffffffffffffffffffffff16611fcf565b15611cd1578373ffffffffffffffffffffffffffffffffffffffff1663150b7a02611ba1611211565b8786866040518563ffffffff1660e01b8152600401611bc394939291906133d6565b6020604051808303816000875af1925050508015611bff57506040513d601f19601f82011682018060405250810190611bfc9190613437565b60015b611c81573d8060008114611c2f576040519150601f19603f3d011682016040523d82523d6000602084013e611c34565b606091505b506000815103611c79576040517f08c379a0000000000000000000000000000000000000000000000000000000008152600401611c70906132cf565b60405180910390fd5b805181602001fd5b63150b7a0260e01b7bffffffffffffffffffffffffffffffffffffffffffffffffffffffff1916817bffffffffffffffffffffffffffffffffffffffffffffffffffffffff191614915050611cd6565b600190505b949350505050565b606060006001611ced84611ff2565b01905060008167ffffffffffffffff811115611d0c57611d0b612724565b5b6040519080825280601f01601f191660200182016040528015611d3e5781602001600182028036833780820191505090505b509050600082602001820190505b600115611da1578080600190039150507f3031323334353637383961626364656600000000000000000000000000000000600a86061a8153600a8581611d9557611d94613464565b5b04945060008503611d4c575b819350505050919050565b50505050565b600073ffffffffffffffffffffffffffffffffffffffff168273ffffffffffffffffffffffffffffffffffffffff1603611e21576040517f08c379a0000000000000000000000000000000000000000000000000000000008152600401611e18906134df565b60405180910390fd5b611e2a81611a34565b15611e6a576040517f08c379a0000000000000000000000000000000000000000000000000000000008152600401611e619061354b565b60405180910390fd5b611e78600083836001611a75565b611e8181611a34565b15611ec1576040517f08c379a0000000000000000000000000000000000000000000000000000000008152600401611eb89061354b565b60405180910390fd5b6001600360008473ffffffffffffffffffffffffffffffffffffffff1673ffffffffffffffffffffffffffffffffffffffff16815260200190815260200160002060008282540192505081905550816002600083815260200190815260200160002060006101000a81548173ffffffffffffffffffffffffffffffffffffffff021916908373ffffffffffffffffffffffffffffffffffffffff160217905550808273ffffffffffffffffffffffffffffffffffffffff16600073ffffffffffffffffffffffffffffffffffffffff167fddf252ad1be2c89b69c2b068fc378daa952ba7f163c4a11628f55a4df523b3ef60405160405180910390a4611fcb600083836001611af6565b5050565b6000808273ffffffffffffffffffffffffffffffffffffffff163b119050919050565b600080600090507a184f03e93ff9f4daa797ed6e38ed64bf6a1f0100000000000000008310612050577a184f03e93ff9f4daa797ed6e38ed64bf6a1f010000000000000000838161204657612045613464565b5b0492506040810190505b6d04ee2d6d415b85acef8100000000831061208d576d04ee2d6d415b85acef8100000000838161208357612082613464565b5b0492506020810190505b662386f26fc1000083106120bc57662386f26fc1000083816120b2576120b1613464565b5b0492506010810190505b6305f5e10083106120e5576305f5e10083816120db576120da613464565b5b0492506008810190505b612710831061210a576127108381612100576120ff613464565b5b0492506004810190505b6064831061212d576064838161212357612122613464565b5b0492506002810190505b600a831061213c576001810190505b80915050919050565b6000604051905090565b600080fd5b600080fd5b60007fffffffff0000000000000000000000000000000000000000000000000000000082169050919050565b61218e81612159565b811461219957600080fd5b50565b6000813590506121ab81612185565b92915050565b6000602082840312156121c7576121c661214f565b5b60006121d58482850161219c565b91505092915050565b60008115159050919050565b6121f3816121de565b82525050565b600060208201905061220e60008301846121ea565b92915050565b600081519050919050565b600082825260208201905092915050565b60005b8381101561224e578082015181840152602081019050612233565b60008484015250505050565b6000601f19601f8301169050919050565b600061227682612214565b612280818561221f565b9350612290818560208601612230565b6122998161225a565b840191505092915050565b600060208201905081810360008301526122be818461226b565b905092915050565b6000819050919050565b6122d9816122c6565b81146122e457600080fd5b50565b6000813590506122f6816122d0565b92915050565b6000602082840312156123125761231161214f565b5b6000612320848285016122e7565b91505092915050565b600073ffffffffffffffffffffffffffffffffffffffff82169050919050565b600061235482612329565b9050919050565b61236481612349565b82525050565b600060208201905061237f600083018461235b565b92915050565b61238e81612349565b811461239957600080fd5b50565b6000813590506123ab81612385565b92915050565b600080604083850312156123c8576123c761214f565b5b60006123d68582860161239c565b92505060206123e7858286016122e7565b9150509250929050565b60008060006060848603121561240a5761240961214f565b5b60006124188682870161239c565b93505060206124298682870161239c565b925050604061243a868287016122e7565b9150509250925092565b600080fd5b600080fd5b600080fd5b60008083601f84011261246957612468612444565b5b8235905067ffffffffffffffff81111561248657612485612449565b5b6020830191508360018202830111156124a2576124a161244e565b5b9250929050565b6000806000806000606086880312156124c5576124c461214f565b5b60006124d38882890161239c565b955050602086013567ffffffffffffffff8111156124f4576124f3612154565b5b61250088828901612453565b9450945050604086013567ffffffffffffffff81111561252357612522612154565b5b61252f88828901612453565b92509250509295509295909350565b612547816122c6565b82525050565b6000602082019050612562600083018461253e565b92915050565b60006020828403121561257e5761257d61214f565b5b600061258c8482850161239c565b91505092915050565b600060608201905081810360008301526125af818661226b565b90506125be602083018561235b565b6125cb604083018461253e565b949350505050565b600081519050919050565b600082825260208201905092915050565b6000819050602082019050919050565b612608816122c6565b82525050565b600061261a83836125ff565b60208301905092915050565b6000602082019050919050565b600061263e826125d3565b61264881856125de565b9350612653836125ef565b8060005b8381101561268457815161266b888261260e565b975061267683612626565b925050600181019050612657565b5085935050505092915050565b600060208201905081810360008301526126ab8184612633565b905092915050565b6126bc816121de565b81146126c757600080fd5b50565b6000813590506126d9816126b3565b92915050565b600080604083850312156126f6576126f561214f565b5b60006127048582860161239c565b9250506020612715858286016126ca565b9150509250929050565b600080fd5b7f4e487b7100000000000000000000000000000000000000000000000000000000600052604160045260246000fd5b61275c8261225a565b810181811067ffffffffffffffff8211171561277b5761277a612724565b5b80604052505050565b600061278e612145565b905061279a8282612753565b919050565b600067ffffffffffffffff8211156127ba576127b9612724565b5b6127c38261225a565b9050602081019050919050565b82818337600083830152505050565b60006127f26127ed8461279f565b612784565b90508281526020810184848401111561280e5761280d61271f565b5b6128198482856127d0565b509392505050565b600082601f83011261283657612835612444565b5b81356128468482602086016127df565b91505092915050565b600080600080608085870312156128695761286861214f565b5b60006128778782880161239c565b94505060206128888782880161239c565b9350506040612899878288016122e7565b925050606085013567ffffffffffffffff8111156128ba576128b9612154565b5b6128c687828801612821565b91505092959194509250565b600080604083850312156128e9576128e861214f565b5b60006128f78582860161239c565b92505060206129088582860161239c565b9150509250929050565b7f4e487b7100000000000000000000000000000000000000000000000000000000600052602260045260246000fd5b6000600282049050600182168061295957607f821691505b60208210810361296c5761296b612912565b5b50919050565b7f4552433732313a20617070726f76616c20746f2063757272656e74206f776e6560008201527f7200000000000000000000000000000000000000000000000000000000000000602082015250565b60006129ce60218361221f565b91506129d982612972565b604082019050919050565b600060208201905081810360008301526129fd816129c1565b9050919050565b7f4552433732313a20617070726f76652063616c6c6572206973206e6f7420746f60008201527f6b656e206f776e6572206f7220617070726f76656420666f7220616c6c000000602082015250565b6000612a60603d8361221f565b9150612a6b82612a04565b604082019050919050565b60006020820190508181036000830152612a8f81612a53565b9050919050565b7f4552433732313a2063616c6c6572206973206e6f7420746f6b656e206f776e6560008201527f72206f7220617070726f76656400000000000000000000000000000000000000602082015250565b6000612af2602d8361221f565b9150612afd82612a96565b604082019050919050565b60006020820190508181036000830152612b2181612ae5565b9050919050565b7f4e6f74206f776e65720000000000000000000000000000000000000000000000600082015250565b6000612b5e60098361221f565b9150612b6982612b28565b602082019050919050565b60006020820190508181036000830152612b8d81612b51565b9050919050565b7f43616e6e6f74206d696e7420746f207a65726f20616464726573730000000000600082015250565b6000612bca601b8361221f565b9150612bd582612b94565b602082019050919050565b60006020820190508181036000830152612bf981612bbd565b9050919050565b60008190508160005260206000209050919050565b60006020601f8301049050919050565b600082821b905092915050565b600060088302612c627fffffffffffffffffffffffffffffffffffffffffffffffffffffffffffffffff82612c25565b612c6c8683612c25565b95508019841693508086168417925050509392505050565b6000819050919050565b6000612ca9612ca4612c9f846122c6565b612c84565b6122c6565b9050919050565b6000819050919050565b612cc383612c8e565b612cd7612ccf82612cb0565b848454612c32565b825550505050565b600090565b612cec612cdf565b612cf7818484612cba565b505050565b5b81811015612d1b57612d10600082612ce4565b600181019050612cfd565b5050565b601f821115612d6057612d3181612c00565b612d3a84612c15565b81016020851015612d49578190505b612d5d612d5585612c15565b830182612cfc565b50505b505050565b600082821c905092915050565b6000612d8360001984600802612d65565b1980831691505092915050565b6000612d9c8383612d72565b9150826002028217905092915050565b612db582612214565b67ffffffffffffffff811115612dce57612dcd612724565b5b612dd88254612941565b612de3828285612d1f565b600060209050601f831160018114612e165760008415612e04578287015190505b612e0e8582612d90565b865550612e76565b601f198416612e2486612c00565b60005b82811015612e4c57848901518255600182019150602085019450602081019050612e27565b86831015612e695784890151612e65601f891682612d72565b8355505b6001600288020188555050505b505050505050565b6000612e8a838561221f565b9350612e978385846127d0565b612ea08361225a565b840190509392505050565b60006040820190508181036000830152612ec6818587612e7e565b9050612ed5602083018461253e565b949350505050565b7f4552433732313a20696e76616c696420746f6b656e2049440000000000000000600082015250565b6000612f1360188361221f565b9150612f1e82612edd565b602082019050919050565b60006020820190508181036000830152612f4281612f06565b9050919050565b7f4552433732313a2061646472657373207a65726f206973206e6f74206120766160008201527f6c6964206f776e65720000000000000000000000000000000000000000000000602082015250565b6000612fa560298361221f565b9150612fb082612f49565b604082019050919050565b60006020820190508181036000830152612fd481612f98565b9050919050565b600081905092915050565b6000612ff182612214565b612ffb8185612fdb565b935061300b818560208601612230565b80840191505092915050565b60006130238285612fe6565b915061302f8284612fe6565b91508190509392505050565b7f4552433732313a207472616e736665722066726f6d20696e636f72726563742060008201527f6f776e6572000000000000000000000000000000000000000000000000000000602082015250565b600061309760258361221f565b91506130a28261303b565b604082019050919050565b600060208201905081810360008301526130c68161308a565b9050919050565b7f4552433732313a207472616e7366657220746f20746865207a65726f2061646460008201527f7265737300000000000000000000000000000000000000000000000000000000602082015250565b600061312960248361221f565b9150613134826130cd565b604082019050919050565b600060208201905081810360008301526131588161311c565b9050919050565b7f45524337323155524953746f726167653a2055524920736574206f66206e6f6e60008201527f6578697374656e7420746f6b656e000000000000000000000000000000000000602082015250565b60006131bb602e8361221f565b91506131c68261315f565b604082019050919050565b600060208201905081810360008301526131ea816131ae565b9050919050565b7f4552433732313a20617070726f766520746f2063616c6c657200000000000000600082015250565b600061322760198361221f565b9150613232826131f1565b602082019050919050565b600060208201905081810360008301526132568161321a565b9050919050565b7f4552433732313a207472616e7366657220746f206e6f6e20455243373231526560008201527f63656976657220696d706c656d656e7465720000000000000000000000000000602082015250565b60006132b960328361221f565b91506132c48261325d565b604082019050919050565b600060208201905081810360008301526132e8816132ac565b9050919050565b7f4e6578757352657075746174696f6e3a20536f756c626f756e64202d2074726160008201527f6e73666572732064697361626c65640000000000000000000000000000000000602082015250565b600061334b602f8361221f565b9150613356826132ef565b604082019050919050565b6000602082019050818103600083015261337a8161333e565b9050919050565b600081519050919050565b600082825260208201905092915050565b60006133a882613381565b6133b2818561338c565b93506133c2818560208601612230565b6133cb8161225a565b840191505092915050565b60006080820190506133eb600083018761235b565b6133f8602083018661235b565b613405604083018561253e565b8181036060830152613417818461339d565b905095945050505050565b60008151905061343181612185565b92915050565b60006020828403121561344d5761344c61214f565b5b600061345b84828501613422565b91505092915050565b7f4e487b7100000000000000000000000000000000000000000000000000000000600052601260045260246000fd5b7f4552433732313a206d696e7420746f20746865207a65726f2061646472657373600082015250565b60006134c960208361221f565b91506134d482613493565b602082019050919050565b600060208201905081810360008301526134f8816134bc565b9050919050565b7f4552433732313a20746f6b656e20616c7265616479206d696e74656400000000600082015250565b6000613535601c8361221f565b9150613540826134ff565b602082019050919050565b6000602082019050818103600083015261356481613528565b905091905056fea26469706673582212204f4031d4de5757272400bea04fd2b4536f74a115b7baa5fc4710827e5323ba3964736f6c63430008180033",
  "linkReferences": {},
  "deployedLinkReferences": {}
}